:060000000A128A110E280D
:10000800FE00030EF0000A08F1007F08F2000A1251
:100018008A11AA280A128A111128F701F8018312F5
:100028000313A601A701A801A90183010A128A11D5
:1000380075281D28FF0000308A007F0882072328C2
:100048000A128A11D528F40083120313051625080D
:10005800F3007308F9008B170B17831603130C149E
:10006800831203131014740C031C901003189014BB
:100078002208F300F30E10087306CF3973069000B8
:100088002208031D482849284C2890121012682875
:100098002203031D5028512854289012101668284E
:1000A80002302206031D59285A285D28901610127E
:1000B800682803302206031D6228632866289016E4
:1000C80010166828901210122108F8002008F7006E
:1000D80021088F0020088E002408A9002308A80002
:1000E8000800831603138601831203138601DB308D
:1000F800A0000B30A100A2010830A3000030A4002A
:100108000130F5007508A50000300A128A11272071
:100118000A128A11031083120313861F031403188B
:1001280096289A288312031386179D28831203138F
:1001380086138230F600DD30F500F50BA128F60BAA
:10014800A128A6288E280A128A110E2883120313C2
:1001580029082706031DB22828082606031DB528E6
:10016800B628BF28A601A70179080A128A111E20FD
:100178000A128A11C5280130A6070318A70A0030F9
:10018800A7077808831203138F0077088E000C10D6
:100198007208FF0071088A00700E8300FE0E7E0E42
:1001A8000900031083120313061C03140318DD2827
:1001B800E128831203130614E4288312031306109C
:0201C80008002D
:08400000FF3FFF3FFF3FFF3FC0
:02400E00393F38
:00000001FF
