:060000000A128A110C280F
:10000800FE00030EF0000A08F1000A128A111328F4
:100018000A128A110F2883010A128A117B280B1CE5
:10002800162817282B2883120313061E1C281D28A0
:100038002B280310071C03140318232827288312CE
:10004800031307142A2883120313071073280B1CA1
:100058002E282F28432883120313861E3428352878
:1000680043280310871C031403183B283F288312D6
:1000780003138714422883120313871073280B1C59
:10008800462847285B2883120313061F4C284D284F
:100098005B280310071D03140318532857288312DD
:1000A800031307155A2883120313071173280B1C0F
:1000B8005E285F28732883120313861F6428652827
:1000C80073280310871D031403186B286F288312E5
:1000D80003138715722883120313871173280B10D3
:1000E80071088A00700E8300FE0E7E0E0900FF3034
:1000F80083160313860087018312031387010A12EC
:100108008A11A4200A128A11031083120313071EEE
:1001180003140318902894288312031307169728AA
:100128008312031307128230F300DD30F200F20B62
:100138009B28F30B9B28A02888280A128A110C28D0
:060148008B178B15080067
:08400000FF3FFF3FFF3FFF3FC0
:02400E00393F38
:00000001FF
