:100000000A128A11B22F00308A000408840A82077B
:10001000003409340034893400340834003488341E
:100020000034073400348734003406340034863416
:0A0030000034053400348534003438
:100C4A000800093400348934003408340034883404
:100C5A0000340734003487340034063400348634D0
:100C6A0000340534003485340034831603138501B7
:100C7A008601870188018901831203138501860190
:100C8A0087018801890108007E088A007F0882009E
:100C9A000A128A1149260A128A118000840A040853
:100CAA007D0603190034FF0A0319FE0A4D2EFF3090
:100CBA00831203138500FF308600FF308700FF3060
:100CCA008800FF3089008230FB00DD30FA00FA0B21
:100CDA006C2EFB0B6C2E712E831203138501860179
:100CEA008701880189018230FB00DD30FA00FA0BA6
:100CFA007C2EFB0B7C2E812E08000A128A112526D7
:100D0A000A128A110A128A113A260A128A11FC0157
:100D1A00FD01FC01FD017D08803AFF0080307F0261
:100D2A00031D992E02307C02031C9C2E9D2E9E2EA2
:100D3A00AA2E0A128A115C260A128A110130FC07AD
:100D4A000318FD0A0030FD07902EFC01FD017D0805
:100D5A00803AFF0080307F02031DB52E02307C02EC
:100D6A00031CB82EB92EBA2E8E2E0A128A11C92643
:100D7A000A128A110130FC070318FD0A0030FD0728
:100D8A00AC2E0A128A110028FF308312031388003E
:100D9A00871706148230FB00DD30FA00FA0BD32ED7
:100DAA00FB0BD32ED82E8312031388010717861440
:100DBA008230FB00DD30FA00FA0BE12EFB0BE12E4C
:100DCA00E62EFF3083120313880087160615823039
:100DDA00FB00DD30FA00FA0BF02EFB0BF02EF52E9D
:100DEA00831203138801071686158230FB00DD3053
:100DFA00FA00FA0BFE2EFB0BFE2E032FFF30831296
:100E0A0003138800871506168230FB00DD30FA00CE
:100E1A00FA0B0D2FFB0B0D2F122F831203138801D0
:100E2A00071586168230FB00DD30FA00FA0B1B2FFD
:100E3A00FB0B1B2F202FFF3083120313880087140C
:100E4A0006178230FB00DD30FA00FA0B2A2FFB0B63
:100E5A002A2F2F2F83120313880107148617823033
:100E6A00FB00DD30FA00FA0B382FFB0B382F3D2F31
:100E7A00FF30831203138800071086138230FB00A9
:100E8A00DD30FA00FA0B472FFB0B472F4C2F83124A
:100E9A0003138801871006138230FB00DD30FA0045
:100EAA00FA0B552FFB0B552F5A2FFF3083120313C2
:100EBA008800071186128230FB00DD30FA00FA0B37
:100ECA00642FFB0B642F692F831203138801871188
:100EDA0006128230FB00DD30FA00FA0B722FFB0B90
:100EEA00722F772FFF30831203138800071286119F
:100EFA008230FB00DD30FA00FA0B812FFB0B812FC9
:100F0A00862F831203138801871206118230FB0091
:100F1A00DD30FA00FA0B8F2FFB0B8F2F942FFF3047
:100F2A00831203138800071386108230FB00DD301A
:100F3A00FA00FA0B9E2FFB0B9E2FA32F831203138B
:100F4A008801871306108230FB00DD30FA00FA0BA5
:100F5A00AC2FFB0BAC2FB12F080083132A30FD00F6
:100F6A000630FE002630FF00203084000A128A1163
:100F7A004D260A128A110A128A1130260A128A1179
:100F8A00F0000A128A1131260A128A11F1000A1295
:100F9A008A1132260A128A11F2000A128A1133269B
:100FAA000A128A11F3000A128A1134260A128A11C5
:100FBA00F4000A128A1135260A128A11F5000A1259
:100FCA008A1136260A128A11F6000A128A1137265F
:100FDA000A128A11F7000A128A1138260A128A118D
:100FEA00F8000A128A1139260A128A11F9008301B5
:060FFA000A128A11822E8A
:08400000FF3FFF3FFF3FFF3FC0
:02400E00393F38
:00000001FF
