:060000000A128A110E280D
:10000800FE00030EF1000A08F2007F08F3000A124E
:100018008A1157280A128A111128F601F701F801E6
:10002800F90183120313A801A90183010A128A1195
:1000380082281D28FF0000308A007F0882072328B5
:100048000A128A11AA28F500831203130516250837
:10005800F4007408AA008B170B17831603130C14EB
:10006800831203131014750C031C901003189014BA
:100078007503031D40284128422807142208F4006C
:10008800F40E10087406CF39740690002108F900A0
:100098002008F80021088F0020088E002408F700A7
:1000A8002308F60008007708831203132906031DA6
:1000B8005F2876082806031D622863286C28A80193
:1000C800A9012A080A128A111E200A128A11722806
:1000D8000130A8070318A90A0030A9077908831274
:1000E80003138F0078088E000C107308FF00720845
:1000F8008A00710E8300FE0E7E0E0900831603131C
:100108008601FA30831203138600FF30A000FF3007
:10011800A100A2010130A3000030A4000130A60014
:100128002608A50001300A128A1127200A128A110E
:10013800823083120313A700DD30A600A60BA22885
:10014800A70BA2289C280A128A110E280130F00059
:0A01580070088312031386070800E5
:08400000FF3FFF3FFF3FFF3FC0
:02400E00393F38
:00000001FF
