:060000000A128A110E280D
:10000800FE00030EF1000A08F2007F08F3000A124E
:100018008A118C280A128A111128F601F701F801B1
:1000280083120313A801A90183010A128A11BB28AC
:100038001C28FF0000308A007F08820722280A1245
:100048008A11E528F5008312031305162408F40025
:100058007408F9008B178B16831603138116083062
:10006800831203132106031D3A283B284428F6016E
:10007800F7018316031381150110811001117C28E3
:100088008316031381150130831203132105F4002D
:100098008316031301087406FE397406810083125F
:1000A800031321080239F400F40D83160313010821
:1000B8007406FD397406810083120313210804397C
:1000C800F400F40DF40D8316031301087406FB39CC
:1000D80074068100831203132108F4007408831640
:1000E80003138104831203132308F7002208F60080
:1000F800750C83160313031C0112031801168312CF
:1001080003132008F4007408F80078088100080038
:100118000B1D8F289028A52877088312031329061A
:10012800031D982876082806031D9B289C28A528C7
:10013800A801A90179080A128A111D200A128A1138
:10014800AD28013083120313A8070318A90A003049
:10015800A90778088312031381000B117308FF00A5
:1001680072088A00710E8300FE0E7E0E0900831647
:1001780003138601FA30831203138600FF30A500AB
:100188002508A0000830A6002608A1000030A2001B
:10019800A3000130A7002708A40000300A128A1122
:1001A80026200A128A11823083120313A600DD303A
:1001B800A500A50BDD28A60BDD28D7280A128A1171
:1001C8000E280130F0007008831203138607080018
:08400000FF3FFF3FFF3FFF3FC0
:02400E00393F38
:00000001FF
