:060000000A128A11F92F1B
:100C42000030831203138C1A01300800831203133D
:100C52008C1E2C2E2D2E272E1A0808008316031305
:100C620088018312031388010030A9000030A80014
:100C72002530A7008030A6000A128A111F270A1207
:100C82008A110A128A1121260A128A11003A0319BC
:100C92004B2E4C2E422E0A128A1127260A128A1134
:100CA200FB007B0883120313B60031303606031DA6
:100CB2005B2E5C2E5E2E8815422E32303606031DC8
:100CC200632E642E662E0815422E33303606031D1F
:100CD2006B2E6C2E6E2E8814422E34303606031D77
:100CE200732E742E762E0814422E30303606031DD3
:100CF2007B2E7C2E7E2E8801422E422E0A128A11D3
:100D0200002883120313A101F31F882E892E962E29
:100D1200F009F109F209F309F00A0319F10A0319BA
:100D2200F20A0319F30AA101A10AF71F992E9A2EBA
:100D3200A92EF409F509F609F709F40A0319F50AC7
:100D42000319F60A0319F70A0130F8007808A10618
:100D52000030A5000030A4000030A3000030A20043
:100D620073087204710470040319B82EB92E062F89
:100D7200A001A00AC92E0130F8000310F00DF10DF8
:100D8200F20DF30DF80BBE2E0130F8007808A00723
:100D9200F31FCC2ECD2EBC2E0130F8000310A20D75
:100DA200A30DA40DA50DF80BCF2E73087702031D1A
:100DB200E42E72087602031DE42E71087502031DEB
:100DC200E42E70087402031CE72EE82EF72E70083A
:100DD200F4027108031C710FF5027208031C720FF2
:100DE200F6027308031C730FF7022214013003107A
:100DF200F30CF20CF10CF00CFF3E031DF82E013047
:100E0200A002031D052F062FCD2E210803190A2F3C
:100E12000B2F162FA209A309A409A509A20A0319D7
:100E2200A30A0319A40A0319A50A2508F300240832
:100E3200F2002308F1002208F000080083120313D5
:100E42002608AA002708AB002808AC002908AD0034
:100E520006300310AA0DAB0DAC0DAD0DFF3E031D08
:100E62002A2F2D08F3002C08F2002B08F1002A0883
:100E7200F0002608AE002708AF002808B0002908B5
:100E8200B10006300310AE0DAF0DB00DB10DFF3E37
:100E9200031D432F0030B2001230B3007A30B40089
:100EA2000030B5002E08B2022F08031C2F0F5A2F54
:100EB2005B2FB3023008031C300F602F612FB40286
:100EC2003108031C310F662F672FB5023508F70072
:100ED2003408F6003308F5003208F4000A128A11C9
:100EE20082260A128A117108FA007008F90001308C
:100EF2007A02003003197902031C802F812FDD2F23
:100F0200831203132608AA002708AB002808AC00A6
:100F12002908AD0004300310AA0DAB0DAC0DAD0DC8
:100F2200FF3E031D8C2F2D08F3002C08F2002B0826
:100F3200F1002A08F0002608AE002708AF002808B2
:100F4200B0002908B10004300310AE0DAF0DB00D92
:100F5200B10DFF3E031DA52F0030B2001230B300C9
:100F62007A30B4000030B5002E08B2022F08031CFC
:100F72002F0FBC2FBD2FB3023008031C300FC22F1E
:100F8200C32FB4023108031C310FC82FC92FB50279
:100F92003508F7003408F6003308F5003208F4008B
:100FA2000A128A1182260A128A117108FA0070083E
:100FB200F90083160313181501307A020030031961
:100FC20079020318E52FE62FF82F79088316031309
:100FD20099001812831203139817831603138717A5
:100FE20007178312031318168316031398160800A3
:0E0FF20083120313B60183010A128A112F2EF7
:08400000FF3FFF3FFF3FFF3FC0
:02400E003A3F37
:00000001FF
