:060000000A128A11FC2F18
:100C0400F00083160313981C082E092E032E700877
:100C14008312031399000800FF3083160313860020
:100C2400003083120313A9000030A8002530A70068
:100C34008030A6000A128A1122270A128A1183120E
:100C440003138619262E272E392E34300A128A11C0
:100C540002260A128A1183120313861D322E332EA2
:100C64002D2E30300A128A1102260A128A1183129A
:100C7400031306193E2E3F2E512E33300A128A11C9
:100C840002260A128A1183120313061D4A2E4B2EC2
:100C9400452E30300A128A1102260A128A11831252
:100CA40003138618562E572E692E32300A128A11D3
:100CB40002260A128A1183120313861C622E632EE3
:100CC4005D2E30300A128A1102260A128A1183120A
:100CD400031306186E2E6F2E212E31300A128A113C
:100CE40002260A128A1183120313061C7A2E7B2E03
:100CF400752E30300A128A1102260A128A11212E08
:100D04000A128A11002883120313A101F31F8B2EE8
:100D14008C2E992EF009F109F209F309F00A03194E
:100D2400F10A0319F20A0319F30AA101A10AF71F30
:100D34009C2E9D2EAC2EF409F509F609F709F40A48
:100D44000319F50A0319F60A0319F70A0130F80022
:100D54007808A1060030A5000030A4000030A300EC
:100D64000030A20073087204710470040319BB2ECE
:100D7400BC2E092FA001A00ACC2E0130F8000310CC
:100D8400F00DF10DF20DF30DF80BC12E0130F8004A
:100D94007808A007F31FCF2ED02EBF2E0130F80005
:100DA4000310A20DA30DA40DA50DF80BD22E7308EC
:100DB4007702031DE72E72087602031DE72E7108E1
:100DC4007502031DE72E70087402031CEA2EEB2E35
:100DD400FA2E7008F4027108031C710FF5027208F0
:100DE400031C720FF6027308031C730FF70222141C
:100DF40001300310F30CF20CF10CF00CFF3E031D58
:100E0400FB2E0130A002031D082F092FD02E21082C
:100E140003190D2F0E2F192FA209A309A409A5093F
:100E2400A20A0319A30A0319A40A0319A50A250887
:100E3400F3002408F2002308F1002208F00008005F
:100E4400831203132608AA002708AB002808AC0065
:100E54002908AD0006300310AA0DAB0DAC0DAD0D85
:100E6400FF3E031D2D2F2D08F3002C08F2002B0844
:100E7400F1002A08F0002608AE002708AF00280871
:100E8400B0002908B10006300310AE0DAF0DB00D4F
:100E9400B10DFF3E031D462F0030B2001230B300E7
:100EA4007A30B4000030B5002E08B2022F08031CBB
:100EB4002F0F5D2F5E2FB3023008031C300F632FFA
:100EC400642FB4023108031C310F692F6A2FB50255
:100ED4003508F7003408F6003308F5003208F4004A
:100EE4000A128A1185260A128A117108FA007008FA
:100EF400F90001307A02003003197902031C832FB0
:100F0400842FE02F831203132608AA002708AB00BE
:100F14002808AC002908AD0004300310AA0DAB0D5D
:100F2400AC0DAD0DFF3E031D8F2F2D08F3002C08D3
:100F3400F2002B08F1002A08F0002608AE0027086A
:100F4400AF002808B0002908B10004300310AE0D2A
:100F5400AF0DB00DB10DFF3E031DA82F0030B20040
:100F64001230B3007A30B4000030B5002E08B2025B
:100F74002F08031C2F0FBF2FC02FB3023008031CF0
:100F8400300FC52FC62FB4023108031C310FCB2FED
:100F9400CC2FB5023508F7003408F6003308F50005
:100FA4003208F4000A128A1185260A128A1171087D
:100FB400FA007008F90083160313181501307A0239
:100FC4000030031979020318E82FE92FFB2F790861
:100FD40083160313990018128312031398178316A8
:100FE40003138717071783120313181683160313A3
:0C0FF4009816080083010A128A110E2EC4
:08400000FF3FFF3FFF3FFF3FC0
:02400E003A3F37
:00000001FF
