:060000000A128A110E280D
:10000800FE00030EF0000A08F1007F08F2000A1251
:100018008A115D280A128A111128F501F601F701E3
:10002800F80183010A128A1123281928FF000030D9
:100038008A007F0882071F280A128A11AD288316B2
:1000480003138701831203138701A0010730A5005A
:100058002508A1008530A2001E30A3000130A600AB
:100068002608A40000300A128A118A200A128A116E
:10007800031083120313071C031403184428482889
:100088008312031307144B2883120313071003303A
:1000980083120313A7008A30A6005530A500A50BCC
:1000A8005328A60B5328A70B53283C280A128A1159
:1000B8000E280B1D60286128762878087606031D0F
:1000C800672877087506031D6A286B287628F501C6
:1000D800F6018312031328080A128A111A200A1239
:1000E8008A117C280130F5070318F60A0030F60754
:1000F80083120313290881000B117208FF0071088D
:100108008A00700E8300FE0E7E0E0900F400831232
:1001180003132408F3007308A8008B178B168316A3
:10012800031381128111740C031C011203180116A8
:10013800831203132108F300730883160313810441
:10014800831203132008F3007308A900290881000B
:100158000800031083120313871F03140318B5281C
:10016800B928831203138717BC2883120313871334
:0201780008007D
:08400000FF3FFF3FFF3FFF3FC0
:02400E00393F38
:00000001FF
