:060000000A128A110C280F
:10000800FE00030EF0000A08F1000A128A113D28CA
:100018000A128A110F2883010A128A1113288316DB
:100028000313061407108713831203138701013083
:100038000A128A1158200A128A1103108312031314
:10004800071C0314031829282D28831203130714E7
:1000580030288312031307108230F400DD30F300D8
:10006800F30B3428F40B3428392821280A128A1172
:100078000C288B1C40284128502803108312031396
:10008800871F0314031849284D2883120313871761
:1000980050288312031387138B1071088A00700E7F
:1000A8008300FE0E7E0E0900F2008B170B16720CF1
:0E00B80083160313031C01130318011708001D
:08400000FF3FFF3FFF3FFF3FC0
:02400E00393F38
:00000001FF
