:060000000A128A1110280B
:10000800FE00030EF0000408F1000A08F2007F0861
:10001800F3000A128A118B280A128A1113288313F3
:100028002A30FD000030FE00E130FF00203084005F
:100038000A128A11D2200A128A11F601F701F80170
:10004800F90183010A128A1160282928FF0000306B
:100058008A007F0882072F280A128A11B628F5001D
:10006800831203132F08F4007408B5008B170B17BD
:10007800831603138C148312031312152E08F4002D
:10008800F40DF40DF40D1208740687397406920005
:1000980012082B06FC392B069200750883160313E9
:1000A8009200831203132D08B4002C08B3002A0809
:1000B800F4007408B600080083160313860183123F
:1000C80003138601FF30B0003008AA00AB01F430FA
:1000D800AC000130AD000F30B1003108AE00013086
:1000E800B2003208AF0064300A128A1133200A12B3
:1000F8008A11823083120313B100DD30B000B00BD7
:100108008328B10B83287D280A128A1110288312AC
:1001180003138C1C90289128AB288C10340879067E
:10012800031D982833087806031D9B289C28A528BA
:10013800F801F90135080A128A112A200A128A11CF
:10014800AB280130F8070318F90A0030F9077308DB
:10015800FF0072088A0071088400700E8300FE0E8A
:100168007E0E09007608203E84008313000883125F
:10017800031386000130F6070318F70A0030F70763
:100188000A3076067704031DCA28CB28CD28F60145
:10019800F70108007E088A007F0882000A128A1187
:1001A800CE200A128A118000840A04087D060319E9
:1001B8000034FF0A0319FE0AD2283F3406345B34A0
:0E01C8004F3466346D347C3407347F346F342A
:08400000FF3FFF3FFF3FFF3FC0
:02400E00393F38
:00000001FF
